:0400000007EF00F016
:0A000800738221ED11F0B3EF1FF039
:10100000003132333435363738392A302354656D60
:101010007065726174757265203A200046616E20B9
:101020004C6576656C203A2D20004C6576656C2009
:1010300031004C6576656C2032004C6576656C201D
:1010400033004C6576656C2034004C6576656C2009
:10105000350046616E204F464600256900000001BC
:10106000F351F411D8A437EF08F039EF08F03EEF50
:1010700008F0000E0101556FDCEF0AF0F00EBD160E
:10108000F3C0D9FFF4C0DAFFDE04D8A44AEF08F0B9
:101090004CEF08F0EBEF08F0F3C00DF0F4C00EF0E9
:1010A0008AEC20F0000120EE01F0F351D926F45132
:1010B000DA22DF50D8A45FEF08F061EF08F0A0EF6C
:1010C00008F07DEF08F0BD50F00B0409BD6E96EFFF
:1010D0000AF0BD50F00B0509BD6E96EF0AF0BD5049
:1010E000F00B0609BD6E96EF0AF0BD50F00B070934
:1010F000BD6E96EF0AF096EF0AF020EE02F0F35183
:10110000D926F451DA22DF50F56FF66BF651000A5A
:10111000D8B48DEF08F07BEF08F0F551040AD8B48D
:1011200063EF08F0010AD8B469EF08F0030AD8B4F5
:101130006FEF08F0010AD8B475EF08F07BEF08F004
:1011400020EE01F0F351D926F451DA22DE04D8A4BE
:10115000ACEF08F0AEEF08F096EF0AF0C8EF08F039
:10116000BA50F00B0409BA6E96EF0AF0BA50F00BC1
:101170000509BA6E96EF0AF0BA50F00B0609BA6E7E
:1011800096EF0AF0BA50F00B0709BA6E96EF0AF024
:1011900020EE02F0F351D926F451DA22DF50F56F38
:1011A000F66BF651000AD8B4D8EF08F07BEF08F0E0
:1011B000F551040AD8B4B0EF08F0010AD8B4B6EF7C
:1011C00008F0030AD8B4BCEF08F0010AD8B4C2EFA3
:1011D00008F07BEF08F0F3C0D9FFF4C0DAFFDF506E
:1011E000D8A4F5EF08F0F7EF08F0A8EF09F0F3C086
:1011F0000DF0F4C00EF08AEC20F0000120EE01F0BA
:10120000F351D926F451DA22DF50D8A40AEF09F0BD
:101210000CEF09F053EF09F02CEF09F0BD50F00B83
:101220000209BD6E96EF0AF0BD50F00B0809BD6EC5
:1012300096EF0AF0BD50F00B0909BD6E96EF0AF06B
:10124000BD50F00B0A09BD6E96EF0AF0BD50F00BD1
:101250000B09BD6E96EF0AF020EE02F0F351D9268D
:10126000F451DA22DF50F56FF66BF651000AD8B46C
:101270003CEF09F07BEF08F0F551020AD8B40EEF0D
:1012800009F00A0AD8B414EF09F0010AD8B41AEF29
:1012900009F0030AD8B420EF09F0010AD8B426EF08
:1012A00009F07BEF08F020EE01F0F351D926F4515C
:1012B000DA22DE04D8A45FEF09F061EF09F096EFBF
:1012C0000AF081EF09F0BA50F00B0209BA6E96EFFE
:1012D0000AF0BA50F00B0809BA6E96EF0AF0BA504D
:1012E000F00B0909BA6E96EF0AF0BA50F00B0A0932
:1012F000BA6E96EF0AF0BA50F00B0B09BA6E96EF81
:101300000AF020EE02F0F351D926F451DA22DF5030
:10131000F56FF66BF651000AD8B491EF09F07BEF48
:1013200008F0F551020AD8B463EF09F00A0AD8B4FC
:1013300069EF09F0010AD8B46FEF09F0030AD8B4D5
:1013400075EF09F0010AD8B47BEF09F07BEF08F0E4
:10135000F3C0D9FFF4C0DAFF020EDE18D8A4B3EF51
:1013600009F0B5EF09F096EF0AF020EE02F0F35124
:10137000D926F451DA220C0EDE18D8A4C2EF09F0F7
:10138000C4EF09F07BEF08F020EE01F0F351D9260D
:10139000F451DA22DF50D8A4D0EF09F0D2EF09F0EF
:1013A000D8EF09F0BD50F00B0C09BD6EEAEF09F063
:1013B00020EE01F0F351D926F451DA22DE04D8A44C
:1013C000E4EF09F0E6EF09F0EAEF09F0BA50F00BAC
:1013D0000C09BA6E000E1F6E000E206E800E216E7C
:1013E000400E226E20EE0BF0F351D926F451DA2292
:1013F000DECF0DF0DECF0EF0DECF0FF0DECF10F03F
:10140000000E98EC15F00DC01BF00EC01CF00FC0C4
:101410001DF010C01EF03FEC0DF01BC04DF11CC0C4
:101420004EF11DC04FF11EC050F1000120EE0FF033
:10143000F351D926F451DA22DF50030BF56FF55141
:101440000D6E0E6A0F6A106A000E98EC15F00DC052
:101450001FF00EC020F00FC021F010C022F04DC1CF
:101460001BF04EC11CF04FC11DF050C11EF03FECEF
:101470000DF01BC051F11CC052F11DC053F11EC034
:1014800054F1000E516E000E526E800E536EBF0E60
:10149000546E000120EE0FF0F351D926F451DA22F8
:1014A000DF30E8320F0BF56FF5510D6E0E6A0F6AE3
:1014B000106A000E98EC15F00DC01FF00EC020F061
:1014C0000FC021F010C022F051C11BF052C11CF01E
:1014D00053C11DF054C11EF03FEC0DF01BC038F09D
:1014E0001CC039F01DC03AF01EC03BF0000E346E37
:1014F000240E356E740E366E4A0E376E54EC0FF0B5
:1015000034C04DF035C04EF036C04FF037C050F00B
:10151000DFEC0AF04DC05DF04EC05EF04FC05FF0F2
:1015200050C060F0E2EC1AF05D50CB6E030E00018B
:10153000F325176E000EF421186E21EC20F0010146
:10154000556F000120EE01F0F351D926F451DA2253
:10155000DF50D8A4AEEF0AF0B0EF0AF0C0EF0AF007
:101560009D849E94F28EF28C20EE05F0F351D926E4
:10157000F451DA22DECFACF0DDCFADF0DCEF0AF0D3
:1015800020EE01F0F351D926F451DA22DE04D8A47A
:10159000CCEF0AF0CEEF0AF0DCEF0AF0A080A190C9
:1015A000F28EF28C20EE08F0F351D926F451DA22B3
:1015B000DECFAAF0DDCFABF0010155511200505043
:1015C000800B596E505050245B6E4FAEEAEF0AF01C
:1015D000ECEF0AF0EDEF0AF05B805B50D8B4F3EF6C
:1015E0000AF0F5EF0AF00AEF0BF05B28D8A4FBEF46
:1015F0000AF0FDEF0AF005EF0BF0000E4D6E000E45
:101600004E6E000E4F6E000E506E4F8E000E506EDE
:1016100012EF0BF0000E4D6E000E4E6E000E4F6E70
:10162000000E506E5450800B5A6E59505A18D8B450
:101630001CEF0BF01EEF0BF01FEF0BF0598C54500A
:1016400054245A6E53AE27EF0BF029EF0BF02AEF1C
:101650000BF05A805A50D8B430EF0BF032EF0BF049
:1016600047EF0BF05A28D8A438EF0BF03AEF0BF005
:1016700042EF0BF0000E516E000E526E000E536ED4
:10168000000E546E538E000E546E4FEF0BF0000E92
:10169000516E000E526E000E536E000E546E5B5073
:1016A0005A5CD8B056EF0BF058EF0BF07FEF0BF011
:1016B00059AC5DEF0BF05FEF0BF061EF0BF0800EBC
:1016C000591A5BC05CF05AC05BF05CC05AF04DC068
:1016D0005CF051C04DF05CC051F04EC05CF052C0A7
:1016E0004EF05CC052F04FC05CF053C04FF05CC095
:1016F00053F050C05CF054C050F05CC054F0000E89
:101700005C6E5B505AC055F0566A555E000E565AD4
:1017100056BE94EF0BF0565009E11A0E555CD8A056
:1017200094EF0BF096EF0BF0CDEF0BF04D504E1009
:101730004F105010D8A49FEF0BF0A2EF0BF0010E4A
:10174000A3EF0BF0000E5C6E000E4D6E000E4E6EA1
:10175000000E4F6E000E506E5AC05BF0D6EF0BF0CD
:101760005CA0B5EF0BF0B7EF0BF0BDEF0BF0D8902E
:101770005C3001095C6EBFEF0BF0D8905C324DA07D
:10178000C4EF0BF0C6EF0BF0C7EF0BF05C8E5034DC
:1017900050324F324E324D325B2A5A505B5CD8A0E9
:1017A000D4EF0BF0D6EF0BF0B0EF0BF059BCDBEF42
:1017B0000BF0DDEF0BF01DEF0CF05B50D8A4E3EF66
:1017C0000BF0E5EF0BF0EFEF0BF0000E4D6E000E9F
:1017D0004E6E000E4F6E000E506E3EEF0DF05150EB
:1017E0004D2652504E2253504F225450502250A05A
:1017F000FCEF0BF0FEEF0BF0AAEF0CF05CA003EF98
:101800000CF005EF0CF00BEF0CF0D8905C300109F8
:101810005C6E0DEF0CF0D8905C324DA012EF0CF026
:1018200014EF0CF015EF0CF05C8E503450324F3248
:101830004E324D325B2AAAEF0CF051504D5C5250A3
:101840004E5853504F585050800A556E5450800A8D
:101850005558D8B02EEF0CF030EF0CF05BEF0CF0D9
:101860004D50515C556E4E505258566E4F50535815
:10187000576E50505458586EFF0E55244D6EFF0E43
:1018800056204E6EFF0E57204F6EFF0E5820506EA2
:10189000800E591A5C6C5C50D8A451EF0CF053EFD9
:1018A0000CF063EF0CF0010E4D26000E4E224F227D
:1018B000502263EF0CF051504D5E52504E5A53502F
:1018C0004F5A5450505A4D504E104F105010D8A4EB
:1018D0006CEF0CF06EEF0CF0A3EF0CF05C50D8A4A2
:1018E00074EF0CF076EF0CF0A3EF0CF0000E4D6EE1
:1018F000000E4E6E000E4F6E000E506E3EEF0DF05D
:10190000D8904D364E364F3650365CAE8AEF0CF0DE
:101910008CEF0CF08DEF0CF04D805CA092EF0CF092
:1019200094EF0CF098EF0CF0D8805C369AEF0CF046
:10193000D8905C365B50D8B4A0EF0CF0A2EF0CF05E
:10194000A3EF0CF05B064FAEA8EF0CF0AAEF0CF083
:1019500080EF0CF0000E5A6E5CAEB1EF0CF0B3EFFE
:101960000CF0CBEF0CF05CC055F07F0E5516D8B4E0
:10197000BCEF0CF0BEEF0CF0C2EF0CF0010E5A6E93
:10198000CBEF0CF04DA0C7EF0CF0C9EF0CF0CBEF94
:101990000CF0BEEF0CF05A50D8B4D1EF0CF0D3EFEE
:1019A0000CF0FEEF0CF0010E4D26000E4E224F22E1
:1019B000502250A0DEEF0CF0E0EF0CF0FEEF0CF048
:1019C0004DC055F04EC056F04FC057F050C058F0C3
:1019D0005834583257325632553255C04DF056C0F1
:1019E0004EF057C04FF058C050F05B28D8B4FBEF12
:1019F0000CF0FDEF0CF0FEEF0CF05B2A5B28D8B486
:101A000004EF0DF006EF0DF00EEF0DF05B50D8A4D3
:101A10000CEF0DF00EEF0DF020EF0DF0000E4D6EFF
:101A2000000E4E6E000E4F6E000E506E5B50D8A42E
:101A30001CEF0DF01EEF0DF020EF0DF0000E596EB3
:101A40005BA025EF0DF027EF0DF02AEF0DF04F8E84
:101A50002BEF0DF04F9ED8905B30506E59AE33EFA8
:101A60000DF035EF0DF036EF0DF0508E4DC04DF00E
:101A70004EC04EF04FC04FF050C050F012001E50FC
:101A8000800B276E1E501E242D6E1DAE4AEF0DF0EA
:101A90004CEF0DF04DEF0DF02D802D50D8B453EFDD
:101AA0000DF055EF0DF068EF0DF02D28D8A45BEF89
:101AB0000DF05DEF0DF065EF0DF0000E1B6E000EEA
:101AC0001C6E000E1D6E000E1E6E1D8E70EF0DF052
:101AD000000E1B6E000E1C6E000E1D6E000E1E6EA4
:101AE0002250800B271A22502224286E21AE7BEF31
:101AF0000DF07DEF0DF07EEF0DF028802850D8B46A
:101B000084EF0DF086EF0DF099EF0DF02828D8A4A2
:101B10008CEF0DF08EEF0DF096EF0DF0000E1F6EB6
:101B2000000E206E000E216E000E226E218EA1EF9F
:101B30000DF0000E1F6E000E206E000E216E000EC6
:101B4000226E2850D8B4A7EF0DF0A9EF0DF0B1EF39
:101B50000DF02D50D8A4AFEF0DF0B1EF0DF0BBEFAD
:101B60000DF0000E1B6E000E1C6E000E1D6E000EA2
:101B70001E6E53EF0FF021501B02F3CF32F0F4CF63
:101B800033F03250296E2A6A2B6A2C6A33502E6E3B
:101B90002F6A306A316A20501C02F3CF32F0F4CF42
:101BA00033F032502926000E2A222B222C223350C9
:101BB0002E26000E2F22302231221F501D02F3CF7D
:101BC00032F0F4CF33F032502926000E2A222B2295
:101BD0002C2233502E26000E2F22302231222BC0F1
:101BE0002CF02AC02BF029C02AF0296A1F501C02B1
:101BF000F3CF32F0F4CF33F03250292633502A227B
:101C0000000E2B22000E2C2220501B02F3CF32F0AC
:101C1000F4CF33F03250292633502A22000E2B22E3
:101C2000000E2C222BC02CF02AC02BF029C02AF049
:101C3000296A1F501B02F3CF32F0F4CF33F0325039
:101C4000292633502A22000E2B22000E2C2221504E
:101C50001C02F3CF32F0F4CF33F032502E26335043
:101C60002F22000E3022000E312220501D02F3CF11
:101C700032F0F4CF33F032502E2633502F22000EA4
:101C80003022000E312221501D02F3CF32F0F4CF6A
:101C900033F03250236E3350246E256A266A25C0F5
:101CA00026F024C025F023C024F0236A23502E26DA
:101CB00024502F22255030222650312229C023F0D3
:101CC0002AC024F02BC025F02CC026F0190E6EEF90
:101CD0000EF0D8902632253224322332E82E69EFD6
:101CE0000EF023502E2624502F222550302226502D
:101CF00031222BC02CF02AC02BF029C02AF0296AEF
:101D000028502DC023F0246A2326000E2422820EA0
:101D10002324326EFF0E2420336EA4EF0EF0D890F1
:101D20002E362F36303631362CAE99EF0EF09BEF33
:101D30000EF09CEF0EF02E80D89029362A362B36E6
:101D40002C363206D8A0330630AEA9EF0EF0ABEF3A
:101D50000EF08FEF0EF0000E286E2CAEB2EF0EF0EC
:101D6000B4EF0EF0D8EF0EF0FF0E2914236EFF0E25
:101D70002A14246EFF0E2B14256E7F0E2C14266E53
:101D80002350241025102610D8B4C9EF0EF0CBEF45
:101D90000EF0CFEF0EF0010E286ED8EF0EF02EA051
:101DA000D4EF0EF0D6EF0EF0D8EF0EF0CBEF0EF032
:101DB0002850D8B4DEEF0EF0E0EF0EF004EF0FF095
:101DC000010E2E26000E2F223022312231A0EBEF01
:101DD0000EF0EDEF0EF004EF0FF02EC023F02FC049
:101DE00024F030C025F031C026F0263426322532CA
:101DF0002432233223C02EF024C02FF025C030F02F
:101E000026C031F0324A332A33BE0FEF0FF0335081
:101E100008E13228D8A00FEF0FF011EF0FF01BEF01
:101E20000FF0000E2E6E000E2F6E800E306E7F0EA5
:101E3000316E49EF0FF033BE28EF0FF0335006E15B
:101E40003204D8B026EF0FF028EF0FF034EF0FF088
:101E5000000E2E6E000E2F6E000E306E000E316ED4
:101E6000000E276E49EF0FF032C02DF0FF0E2E1638
:101E7000FF0E2F167F0E3016000E31162DA043EFE9
:101E80000FF045EF0FF046EF0FF0308ED8902D3069
:101E9000316E275031122EC01BF02FC01CF030C005
:101EA0001DF031C01EF012003750800B446E3750C9
:101EB00037244B6E36AE5FEF0FF061EF0FF062EF3D
:101EC0000FF04B804B50D8B468EF0FF06AEF0FF073
:101ED0007FEF0FF04B28D8A470EF0FF072EF0FF0E8
:101EE0007AEF0FF0000E346E000E356E000E366E77
:101EF000000E376E368E000E376E87EF0FF0000E35
:101F0000346E000E356E000E366E000E376E3B508E
:101F1000800B441A3B503B244C6E3AAE92EF0FF0CC
:101F200094EF0FF095EF0FF04C804C50D8B49BEF2E
:101F30000FF09DEF0FF0B2EF0FF04C28D8A4A3EFF5
:101F40000FF0A5EF0FF0ADEF0FF0000E386E000EA2
:101F5000396E000E3A6E000E3B6E3A8E000E3B6EEE
:101F6000BAEF0FF0000E386E000E396E000E3A6EAA
:101F7000000E3B6E385039103A103B10D8A4C3EF16
:101F80000FF0C5EF0FF0DDEF0FF0000E346E000E16
:101F9000356E000E366E000E376E800E36127F0ED6
:101FA00037124450371234C034F035C035F036C0E3
:101FB00036F037C037F020EF11F04B50D8A4E3EFE4
:101FC0000FF0E5EF0FF0EFEF0FF0000E346E000EA4
:101FD000356E000E366E000E376E20EF11F04C504D
:101FE0004BC03CF03D6A3C5E000E3D5A7F0E3C24E7
:101FF000456E000E3D20466E34C040F035C041F0C5
:1020000036C042F037C043F0000E346E000E356E1D
:10201000000E366E000E376E000E476E000E486ED4
:10202000000E496E000E4A6E000E4C6E50EF10F01E
:102030004C50D8B41EEF10F020EF10F037EF10F036
:10204000D8904036413642364336D890343635360D
:10205000363637364AAE2FEF10F031EF10F032EF50
:1020600010F03480D8904736483649364A363850D2
:10207000405C395041583A5042583B504358D8A0E0
:1020800044EF10F046EF10F04FEF10F04A8C38504C
:10209000405E3950415A3A50425A3B50435A4C2ABA
:1020A000190E4C6456EF10F058EF10F018EF10F0C6
:1020B0004050411042104310D8B461EF10F063EF6C
:1020C00010F07BEF10F047807BEF10F0D8903436A3
:1020D0003536363637364AAE70EF10F072EF10F004
:1020E00073EF10F03480D8904736483649364A3678
:1020F0004506D8A0460636AE80EF10F082EF10F00D
:1021000066EF10F0000E4C6E4AAE89EF10F08BEFC8
:1021100010F0AFEF10F0FF0E47143C6EFF0E4814A6
:102120003D6EFF0E49143E6E7F0E4A143F6E3C50CA
:102130003D103E103F10D8B4A0EF10F0A2EF10F009
:10214000A6EF10F0010E4C6EAFEF10F034A0ABEF25
:1021500010F0ADEF10F0AFEF10F0A2EF10F04C5018
:10216000D8B4B5EF10F0B7EF10F0DBEF10F0010EC0
:102170003426000E35223622372237A0C2EF10F067
:10218000C4EF10F0DBEF10F034C03CF035C03DF090
:1021900036C03EF037C03FF03F343F323E323D3232
:1021A0003C323CC034F03DC035F03EC036F03FC05C
:1021B00037F0454A462A46BEE6EF10F0465008E1A1
:1021C0004528D8A0E6EF10F0E8EF10F0F3EF10F09C
:1021D000000E466E4568000E346E000E356E000E21
:1021E000366E000E376E46BE00EF11F0465006E127
:1021F0004504D8B0FEEF10F000EF11F00EEF11F033
:10220000000E466E000E456E000E346E000E356EEA
:10221000000E366E000E376E000E446E45C04BF059
:102220004BA015EF11F017EF11F01AEF11F0368EE9
:102230001BEF11F0369ED8904B30376ED1EF0FF078
:1022400012000600FACF09F0FBCF0AF0D9CF0BF04D
:10225000DACF0CF0F2A82FEF11F031EF11F03AEFD6
:1022600011F0F2A236EF11F038EF11F03AEF11F061
:10227000F3EC22F0F0A63FEF11F041EF11F04AEF3E
:1022800011F0F0A046EF11F048EF11F04AEF11F015
:10229000F1EC22F0F0A84FEF11F051EF11F05AEFEE
:1022A00011F0F0A256EF11F058EF11F05AEF11F0C3
:1022B000EFEC22F0F2A65FEF11F061EF11F07CEF8E
:1022C00011F0F2A066EF11F068EF11F07CEF11F061
:1022D00081A86DEF11F06FEF11F07CEF11F06750F6
:1022E000D8A475EF11F077EF11F07CEF11F0010E2B
:1022F000676E000EC0EC22F0F2A681EF11F083EFC2
:1023000011F09EEF11F0F2A088EF11F08AEF11F0BA
:102310009EEF11F081B88FEF11F091EF11F09EEF69
:1023200011F06704D8A497EF11F099EF11F09EEF28
:1023300011F0000E676E010EC0EC22F0F2A6A3EFC2
:1023400011F0A5EF11F0C0EF11F0F2A0AAEF11F01B
:10235000ACEF11F0C0EF11F081AAB1EF11F0B3EFC3
:1023600011F0C0EF11F06850D8A4B9EF11F0BBEF35
:1023700011F0C0EF11F0010E686E000EB3EC22F008
:10238000F2A6C5EF11F0C7EF11F0E2EF11F0F2A0E5
:10239000CCEF11F0CEEF11F0E2EF11F081BAD3EFF4
:1023A00011F0D5EF11F0E2EF11F06804D8A4DBEFE3
:1023B00011F0DDEF11F0E2EF11F0000E686E010E8A
:1023C000B3EC22F0F2A6E7EF11F0E9EF11F004EF21
:1023D00012F0F2A0EEEF11F0F0EF11F004EF12F0B6
:1023E00081ACF5EF11F0F7EF11F004EF12F0695046
:1023F000D8A4FDEF11F0FFEF11F004EF12F0010E81
:10240000696E000EA6EC22F0F2A609EF12F00BEFB7
:1024100012F026EF12F0F2A010EF12F012EF12F00D
:1024200026EF12F081BC17EF12F019EF12F026EF31
:1024300012F06904D8A41FEF12F021EF12F026EF7A
:1024400012F0000E696E010EA6EC22F0F2A62BEF40
:1024500012F02DEF12F048EF12F0F2A032EF12F06E
:1024600034EF12F048EF12F081AE39EF12F03BEF8B
:1024700012F048EF12F06A50D8A441EF12F043EF87
:1024800012F048EF12F0010E6A6E000E99EC22F085
:10249000F2A64DEF12F04FEF12F06AEF12F0F2A039
:1024A00054EF12F056EF12F06AEF12F081BE5BEFBC
:1024B00012F05DEF12F06AEF12F06A04D8A463EF35
:1024C00012F065EF12F06AEF12F0000E6A6E010E64
:1024D00099EC22F09DAC6FEF12F071EF12F07AEFF1
:1024E00012F09EAC76EF12F078EF12F07AEF12F065
:1024F00053EC22F0F2AA7FEF12F081EF12F08AEF94
:1025000012F0F2A486EF12F088EF12F08AEF12F0C8
:10251000E4EC22F09DA08FEF12F091EF12F09AEF11
:1025200012F09EA096EF12F098EF12F09AEF12F0D0
:10253000DDEC22F09DA29FEF12F0A1EF12F0AAEFC6
:1025400012F09EA2A6EF12F0A8EF12F0AAEF12F07E
:10255000EBEC22F0A0A2AFEF12F0B1EF12F0BAEF65
:1025600012F0A1A2B6EF12F0B8EF12F0BAEF12F02B
:10257000D6EC22F09DA4BFEF12F0C1EF12F0CAEF2B
:1025800012F09EA4C6EF12F0C8EF12F0CAEF12F0DC
:10259000F7EC22F0A0A0CFEF12F0D1EF12F0DAEFBB
:1025A00012F0A1A0D6EF12F0D8EF12F0DAEF12F08D
:1025B000F5EC22F00CC0DAFF0BC0D9FF0AC0FBFF1C
:1025C00009C0FAFF7392110038EC22F0E00E296E78
:1025D000000E2A6E010E2B6E010E2C6E0D0E2D6E4E
:1025E000100E2E6EB8EC20F00001FF6FE00E296E89
:1025F000000E2A6E030E2B6E010E2C6E1C0E2D6E1D
:10260000100E2E6EB8EC20F00001FF6FF10E176E69
:10261000000E186E5AEC21F00001FF6F6D50D8A427
:1026200014EF13F016EF13F022EF13F0EA0E156E0D
:10263000000E166E000E176E9FEC21F00001FF6F6A
:10264000010E6D6E000E1F6E400E206E9C0E216EF0
:10265000400E226EBAC00DF0BBC00EF00F6A106AB9
:10266000000E98EC15F00DC01BF00EC01CF00FC052
:102670001DF010C01EF03FEC0DF01BC05DF01CC043
:102680005EF01DC05FF01EC060F0E2EC1AF05DC0AD
:102690006BF05EC06CF06BC00DF06CC00EF0000E05
:1026A000106E0A0E0F6E79EC1FF00DC06BF00EC0AD
:1026B0006CF06BC061F06CC062F0310E636E010EA5
:1026C000646EFBEC1CF00001FF6FE00E296E000E43
:1026D0002A6E010E2B6E0F0E2C6E310E2D6E010E1A
:1026E0002E6EB8EC20F00001FF6F6C5009E15A0E1D
:1026F0006B5CD8A07EEF13F080EF13F0A4EF13F023
:10270000D00EF36F000EF46F640EF56F5CEC14F0F6
:102710000001FF6FE00E296E000E2A6E040E2B6E74
:10272000010E2C6E4A0E2D6E100E2E6EB8EC20F09F
:102730000001FF6FD00E0D6E000E0E6EEAEC1FF062
:102740000001FF6F0EEF13F06C5009E1460E6B5C59
:10275000D8A0ADEF13F0AFEF13F0CBEF13F0D00E26
:10276000F36F000EF46F500EF56F5CEC14F0000187
:10277000FF6FE00E296E000E2A6E040E2B6E010E06
:102780002C6E420E2D6E100E2E6EB8EC20F0000155
:10279000FF6F9AEF13F06C5009E1320E6B5CD8A01A
:1027A000D4EF13F0D6EF13F0F2EF13F0D00EF36F77
:1027B000000EF46F3C0EF56F5CEC14F00001FF6F3F
:1027C000E00E296E000E2A6E040E2B6E010E2C6E8A
:1027D0003A0E2D6E100E2E6EB8EC20F00001FF6F39
:1027E0009AEF13F06C5009E11E0E6B5CD8A0FBEF62
:1027F00013F0FDEF13F019EF14F0D00EF36F000E8D
:10280000F46F280EF56F5CEC14F00001FF6FE00E22
:10281000296E000E2A6E040E2B6E010E2C6E320EE7
:102820002D6E100E2E6EB8EC20F00001FF6F9AEFA7
:1028300013F06C5009E1160E6B5CD8A022EF14F077
:1028400024EF14F040EF14F0D00EF36F000EF46F8D
:10285000140EF56F5CEC14F00001FF6FE00E296EB2
:10286000000E2A6E040E2B6E010E2C6E2A0E2D6E9B
:10287000100E2E6EB8EC20F00001FF6F9AEF13F0EF
:10288000D00E0D6E000E0E6E57EC20F00001FF6FA3
:10289000E00E296E000E2A6E040E2B6E010E2C6EB9
:1028A000520E2D6E100E2E6EB8EC20F00001FF6F50
:1028B0000EEF13F007EF00F0010E0001F86FF35177
:1028C000F411D8A466EF14F068EF14F06CEF14F074
:1028D000000EF86F96EF15F020EE01F0F351D926B7
:1028E000F451DA22DF50D8A478EF14F07AEF14F024
:1028F00002EF15F0000E1F6E000E206E800E216E8E
:10290000400E226E000E516E000E526E800E536EFF
:102910003F0E546ECB500D6E0E6A0F6A106A000E99
:1029200098EC15F00DC04DF00EC04EF00FC04FF0FA
:1029300010C050F0DFEC0AF04DC01BF04EC01CF090
:102940004FC01DF050C01EF03FEC0DF01BC0F9F061
:102950001CC0FAF01DC0FBF01EC0FCF0000E386E6B
:10296000000E396EC80E3A6E420E3B6E0001F551F4
:102970000D6E0E6A0F6A106A000E98EC15F00DC00D
:1029800034F00EC035F00FC036F010C037F054EC04
:102990000FF034C01FF035C020F036C021F037C032
:1029A00022F0F9C01BF0FAC01CF0FBC01DF0FCC007
:1029B0001EF03FEC0DF01BC05DF01CC05EF01DC0B2
:1029C0005FF01EC060F0E2EC1AF05DC0FDF05EC08A
:1029D000FEF0FDC0F6F0030E0001F617F63BBD5009
:1029E000F619CF0BF619BD6EFDC0F6F0FEC0F7F07C
:1029F000D890F733F633D890F733F633F651BE6EEE
:102A000096EF15F020EE01F0F351D926F451DA22B9
:102A1000DE04D8A40EEF15F010EF15F096EF15F0C8
:102A2000000E1F6E000E206E800E216E400E226E74
:102A3000000E516E000E526E800E536E3F0E546E9D
:102A4000CB500D6E0E6A0F6A106A000E98EC15F0EE
:102A50000DC04DF00EC04EF00FC04FF010C050F042
:102A6000DFEC0AF04DC01BF04EC01CF04FC01DF053
:102A700050C01EF03FEC0DF01BC0F9F01CC0FAF086
:102A80001DC0FBF01EC0FCF0000E386E000E396E4B
:102A9000C80E3A6E420E3B6E0001F5510D6E0E6A85
:102AA0000F6A106A000E98EC15F00DC034F00EC0DD
:102AB00035F00FC036F010C037F054EC0FF034C0D2
:102AC0001FF035C020F036C021F037C022F0F9C029
:102AD0001BF0FAC01CF0FBC01DF0FCC01EF03FEC68
:102AE0000DF01BC05DF01CC05EF01DC05FF01EC08D
:102AF00060F0E2EC1AF05DC0FDF05EC0FEF0FDC0DB
:102B0000F6F0030E0001F617F63BBA50F619CF0B9C
:102B1000F619BA6EFDC0F6F0FEC0F7F0D890F733A4
:102B2000F633D890F733F633F651BB6EF8511200F6
:102B3000156E1550D8B49FEF15F0A1EF15F0C3EF47
:102B400015F010BEA8EF15F0A6EF15F0C3EF15F0C5
:102B50000DC011F00EC012F00FC013F010C014F031
:102B6000111E121E131E141E112A000E12221322F1
:102B7000142211C017F012C018F013C019F014C0BD
:102B80001AF0CBEF15F00DC017F00EC018F00FC003
:102B900019F010C01AF00D500E100F101010D8A41C
:102BA000D4EF15F0D6EF15F0E0EF15F0000E0D6E36
:102BB000000E0E6E000E0F6E000E106E71EF16F00E
:102BC000960E166EEAEF15F0162AD8901A321932C0
:102BD00018321732000E1714116E000E1814126EF0
:102BE000000E1914136EFE0E1A14146E11501210EA
:102BF00013101410D8A4FFEF15F001EF16F0E4EF56
:102C000015F00FEF16F0162A010E1726000E1822E7
:102C100019221A22D8901A32193218321732000E9D
:102C20001714116E000E1814126E000E1914136E84
:102C3000FF0E1A14146E1150121013101410D8A491
:102C400024EF16F026EF16F003EF16F02EEF16F035
:102C50001606D8901736183619361A3619BE33EFBD
:102C600016F035EF16F03DEF16F0020E16603BEF52
:102C700016F03DEF16F028EF16F016B042EF16F002
:102C800044EF16F045EF16F0199ED890163216C094
:102C900011F0126A136A146A11C014F0136A126AEE
:102CA000116A1150171212501812135019121450A1
:102CB0001A121550D8B45FEF16F061EF16F069EFF5
:102CC00016F010BE68EF16F066EF16F069EF16F01A
:102CD0001A8E17C00DF018C00EF019C00FF01AC0F0
:102CE00010F012002BBE77EF16F07AEF16F0010EFF
:102CF0007BEF16F0000E326E3250D8B482EF16F031
:102D000084EF16F088EF16F02A6C2B1ED8B02B2A11
:102D1000000199BF90EF16F08EEF16F096EF16F0C7
:102D2000000E2F6E010E2E6E9AEF16F098C02EF048
:102D300099C02FF096C030F097C031F03250D8B41F
:102D4000A4EF16F0A6EF16F0BDEF16F03006D8A0EF
:102D500031063250D8A4AFEF16F0B1EF16F0B7EF4E
:102D600016F0000E2D6E2B0E2C6EBBEF16F0000E23
:102D70002D6E2D0E2C6E2CC032F0000E346E1F0EF8
:102D8000336E000E0101306FF6EF16F03306D8A057
:102D90003406110E3324D96E010E3420DA6E2AC0A7
:102DA0000DF02BC00EF0000E106E0A0E0F6E58ECD8
:102DB0001DF00DC013F00EC014F0C0EC21F0135044
:102DC000300FDF6E2E06D8A02F063006D8A03106B1
:102DD0002AC00DF02BC00EF0000E106E0A0E0F6E02
:102DE00038EC1CF00DC02AF00EC02BF034BE01EF01
:102DF00017F0345008E13304D8A001EF17F003EFC7
:102E000017F019EF17F02A502B10D8A40AEF17F07B
:102E10000CEF17F0C6EF16F02FBE19EF17F02F507A
:102E200006E12E04D8B017EF17F019EF17F0C6EF30
:102E300016F03250D8B41FEF17F021EF17F02CEF37
:102E400017F03306D8A03406110E3324D96E010EC4
:102E50003420DA6E32C0DFFF28C01DF029C01EF01A
:102E6000110E33241F6E010E3420206E30C021F06D
:102E700031C022F03CEC1FF012000DC017F00EC064
:102E800018F011501210D8A448EF17F04AEF17F0BD
:102E90004CEF17F0F7EF17F017C0D9FF18C0DAFFA3
:102EA0000FC0DFFF11501724136E12501820146E3C
:102EB000FF0E1324D96EFF0E1420DA6E0FC0DFFF51
:102EC000125007E1030E115CD8B069EF17F06BEFF9
:102ED00017F06DEF17F0F7EF17F020EE01F0175035
:102EE000D9261850DA220FC0DFFF20EE02F017506B
:102EF000D9261850DA220FC0DFFF11501724136EA5
:102F000012501820146EFE0E1324D96EFF0E1420DA
:102F1000DA6E0FC0DFFF11501724136E1250182005
:102F2000146EFD0E1324D96EFF0E1420DA6E0FC03E
:102F3000DFFF125007E1070E115CD8B0A2EF17F0C7
:102F4000A4EF17F0A6EF17F0F7EF17F020EE03F05D
:102F50001750D9261850DA220FC0DFFF115017245E
:102F6000136E12501820146EFC0E1324D96EFF0E2F
:102F70001420DA6E0FC0DFFF125007E1090E115C5A
:102F8000D8B0C5EF17F0C7EF17F0C9EF17F0F7EF9C
:102F900017F017C013F018C014F0131E141E134AB4
:102FA000142A030E1314156E166A155017261650A0
:102FB00018221550115E1650125AFC0E1116FF0EF3
:102FC0001216EEEF17F017C0D9FF18C0DAFF0FC0C6
:102FD000DFFF1106D8A01206174A182A1150121046
:102FE000D8A4F5EF17F0F7EF17F0E3EF17F01200A2
:102FF000010E156E0D500E10D8B401EF18F003EF4E
:1030000018F014EF18F00DC0D9FF0EC0DAFFDF3052
:10301000E832E832070B0F6E070E0F6412EF18F05C
:1030200014EF18F077EF18F0000E156E98EF18F007
:103030000DC0D9FF0EC0DAFFDF30E832E832070BEF
:103040000F6E010E106E0F2A28EF18F0D890103670
:103050000F2E26EF18F01050FF0A116E0DC0D9FF89
:103060000EC0DAFFDF50070B126E1250020DC60EB3
:10307000F324D96E000EF420DA6EDECF13F0DDCF2C
:1030800014F013C0D9FF14C0DAFF1150DF1698EF07
:1030900018F00DC0D9FF0EC0DAFFDF30E832E83299
:1030A000070B0F6E010E106E0F2A59EF18F0D89013
:1030B00010360F2E57EF18F00DC0D9FF0EC0DAFFF3
:1030C000DF50070B116E1150020DC60EF324D96E9E
:1030D000000EF420DA6EDECF12F0DDCF13F012C056
:1030E000D9FF13C0DAFF1050DF1298EF18F00DC0AF
:1030F000D9FF0EC0DAFFDFBC80EF18F083EF18F0C5
:10310000010E84EF18F0000E0F6E106A1050000AC6
:10311000D8B48DEF18F014EF18F00F50000AD8B49F
:1031200018EF18F0010AD8B449EF18F014EF18F0AE
:103130001550120022502310D8A4A1EF18F0A3EFCD
:1031400018F0A7EF18F0000E276E31EF19F0080EF7
:103150002224176E000E2320186E21EC20F0276E1B
:10316000090E2224176E000E2320186E21EC20F089
:10317000276E000E266E000E256E25502224176E37
:1031800026502320186E21EC20F0254A262A26BE40
:10319000D3EF18F0265009E1080E255CD8A0D3EF34
:1031A00018F0D5EF18F0BDEF18F01A0E246EF80ED7
:1031B000E82EFED7242EFCD700D022C01AF023C060
:1031C0001BF0380E1C6EF1EC1EF0070E246E7D0E07
:1031D000E82EFED7242EFCD700F022C01AF023C020
:1031E0001BF0380E1C6EF1EC1EF0320EE82EFED7EE
:1031F00022C01AF023C01BF0380E1C6EF1EC1EF03A
:1032000022C01AF023C01BF0010E1C6EF1EC1EF060
:1032100022C01AF023C01BF0020E1C6EF1EC1EF04F
:1032200022C01AF023C01BF0060E1C6EF1EC1EF03B
:1032300022C01AF023C01BF00C0E1C6EF1EC1EF025
:1032400022C01AF023C01BF0380E1C6EF1EC1EF0E9
:1032500022C01AF023C01BF0800E1C6EF1EC1EF091
:10326000276E2750120037C0D9FF38C0DAFFDECFF3
:10327000F6FFDDCFF7FFF86A0800F550250AD8A45D
:1032800044EF19F046EF19F0B3EF19F037C0D9FF4A
:1032900038C0DAFFDE2A000EDD22000E0001976F33
:1032A000000E966F96C0B0F09869996937C0D9FF43
:1032B00038C0DAFFDECF41F0DDCF42F041C0F6FF8B
:1032C00042C0F7FFF86A0800F550640AD8B46BEF03
:1032D00019F06DEF19F07CEF19F041C0F6FF42C014
:1032E000F7FFF86A0800F550690AD8A47AEF19F0D8
:1032F0007CEF19F0AAEF19F039C0D9FF3AC0DAFF14
:10330000DFCF3BF0020EDE26DFCF3CF0000EDD22E9
:103310003BC0D9FF3CC0DAFFDECF3DF0DDCF3EF051
:10332000010E41243B6E000E42203C6E37C0D9FF97
:1033300038C0DAFF3BC0DEFF3CC0DDFF35C028F0FF
:1033400036C029F03DC02AF03EC02BF072EC16F0DA
:10335000C8EF19F037C0D9FF38C0DAFFDE2A000EF7
:10336000DD22C8EF19F037C0D9FF38C0DAFFDECF51
:10337000F6FFDDCFF7FFF86A0800F5500D6E0E6A14
:1033800035C00FF036C010F0D3EC1BF0AAEF19F0E7
:103390001200010E166E0D500E10D8B4D2EF19F0B7
:1033A000D4EF19F0E5EF19F00DC0D9FF0EC0DAFF28
:1033B000DF30E832E832070B106E070E1064E3EFDF
:1033C00019F0E5EF19F048EF1AF0000E166E5DEFF8
:1033D0001AF00DC0D9FF0EC0DAFFDF30E832E83254
:1033E000070B106E010E116E102AF9EF19F0D8902C
:1033F0001136102EF7EF19F01150FF0A126E0DC0A2
:10340000D9FF0EC0DAFFDF50070B136E1350020D09
:10341000BC0EF324D96E000EF420DA6EDECF14F069
:10342000DDCF15F014C0D9FF15C0DAFF1250DF163A
:103430005DEF1AF00DC0D9FF0EC0DAFFDF30E832C1
:10344000E832070B106E010E116E102A2AEF1AF0E7
:10345000D8901136102E28EF1AF00DC0D9FF0EC0EB
:10346000DAFFDF50070B126E1250020DBC0EF32470
:10347000D96E000EF420DA6EDECF13F0DDCF14F03B
:1034800013C0D9FF14C0DAFF1150DF125DEF1AF03C
:103490000F50106E116A1150000AD8B452EF1AF092
:1034A000E5EF19F01050000AD8B4E9EF19F0010A5D
:1034B000D8B41AEF1AF0E5EF19F016501200010E09
:1034C000136E10501110D8A468EF1AF06AEF1AF0BA
:1034D0006EEF1AF0000E136EE0EF1AF0C29020EEBD
:1034E00004F01050D9261150DA22DF50126E124625
:1034F00012461246C0501218C70B1218C06E20EEAA
:1035000005F01050D9261150DA22DF50126EC0504B
:103510001218F80B1218C06E20EE03F01050D926C6
:103520001150DA22DF50126E12461246C2501218A3
:10353000C30B1218C26E20EE03F01050D9261150A2
:10354000DA22DF5065EC1BF09D8C9E9CF28EF28C93
:1035500010C0D9FF11C0DAFFDECFAEF0DDCFAFF083
:1035600020EE06F01050D9261150DA22DFA202D048
:10357000C08E01D0C09E20EE06F01050D92611500A
:10358000DA22DFA0C6EF1AF0C8EF1AF0CCEF1AF07B
:10359000C198C19ADFEF1AF020EE06F01050D9263C
:1035A0001150DA22DFB0D7EF1AF0D9EF1AF0DDEFC1
:1035B0001AF0C188C18ADFEF1AF0C198C19AC2809F
:1035C000135012005F346034666E6650D8A4EBEF7F
:1035D0001AF0EDEF1AF0F7EF1AF0000E5D6E000E24
:1035E0005E6E000E5F6E000E606E64EF1BF05DC0DD
:1035F00061F05EC062F05FC063F060C064F0200EF6
:1036000007EF1BF0D8906432633262326132E82EE9
:1036100002EF1BF06150656E5F8EFF0E5D16FF0EB0
:103620005E16FF0E5F16000E6016960E665E66BE94
:103630001EEF1BF01CEF1BF034EF1BF06650800AEE
:10364000970FD8B026EF1BF028EF1BF02AEF1BF0E6
:10365000EDEF1AF0D89060325F325E325D32663E36
:103660002AEF1BF04CEF1BF01F0E66643AEF1BF0C5
:103670003CEF1BF044EF1BF0EDEF1AF0D8905D36F5
:103680005E365F36603666066650D8A44AEF1BF099
:103690004CEF1BF03EEF1BF06550D8B452EF1BF01F
:1036A00054EF1BF05CEF1BF0601E5F1E5E1E5D6C36
:1036B000000E5E225F2260225DC05DF05EC05EF0A3
:1036C0005FC05FF060C060F012000F6E91EF1BF002
:1036D0009280D2EF1BF09282D2EF1BF09284D2EF55
:1036E0001BF09286D2EF1BF0928AD2EF1BF09680ED
:1036F000D2EF1BF09682D2EF1BF09684D2EF1BF034
:103700009384D2EF1BF09386D2EF1BF09382D2EF1B
:103710001BF09388D2EF1BF09380D2EF1BF0D2EF17
:103720001BF00F500D6E0E6A0E50000AD8B49BEFBE
:103730001BF08FEF1BF00D50000AD8B468EF1BF0A0
:10374000010AD8B46BEF1BF0030AD8B46EEF1BF07C
:10375000010AD8B471EF1BF0070AD8B474EF1BF05C
:10376000010AD8B477EF1BF0030AD8B47AEF1BF044
:10377000010AD8B47DEF1BF00F0AD8B480EF1BF01C
:10378000010AD8B483EF1BF0030AD8B486EF1BF00C
:10379000010AD8B489EF1BF0070AD8B48CEF1BF0EC
:1037A0008FEF1BF012000F501010D8B4DAEF1BF09F
:1037B000DCEF1BF0E5EF1BF00F501010D8A4E3EF87
:1037C0001BF0E5EF1BF0EAEF1BF00D50F9EC22F0D7
:1037D00037EF1CF020EE0AF00F50D9261050DA22F5
:1037E000DE50DE10D8B4F7EF1BF0F9EF1BF014EF4A
:1037F0001CF020EE0AF00F50D9261050DA2210EEFD
:1038000003F00F50E1261050E222DE50E65CE65055
:10381000800A156EDE50800A1558D8B012EF1CF0E1
:1038200014EF1CF037EF1CF020EE03F00F50D926F8
:103830001050DA22DECF11F0DDCF12F00FC0D9FF29
:1038400010C0DAFFDECF13F0DDCF14F011501324D7
:10385000D96E12501420DA6E0DC0DFFF20EE03F097
:103860000F50D9261050DA22DE2A000EDD22120077
:10387000000E126E10BE41EF1CF03FEF1CF047EF40
:103880001CF00F6C101ED8B0102A010E126E0EBE66
:103890004EEF1CF04CEF1CF054EF1CF00D6C0E1EA4
:1038A000D8B00E2A010E121A000E146E000E136EFE
:1038B0000F501010D8B45FEF1CF061EF1CF089EFCF
:1038C0001CF0010E116E69EF1CF0D8900F36103607
:1038D000112A10AE6EEF1CF070EF1CF065EF1CF0BB
:1038E000D890133614360F500D5C10500E58D8A0D7
:1038F0007CEF1CF07EEF1CF083EF1CF00F500D5E90
:1039000010500E5A1380D89010320F32112E70EFD3
:103910001CF01250D8B48FEF1CF091EF1CF095EF13
:103920001CF0136C141ED8B0142A13C00DF014C070
:103930000EF01200010E286E22502310D8A4A3EF1F
:103940001CF0A5EF1CF0A9EF1CF0000E286EF9EF9B
:103950001CF02506DCEF1CF022C01AF023C01BF07F
:103960002550800F1C6EF1EC1EF0286EF9EF1CF054
:1039700022C01AF023C01BF02550C00F1C6EF1ECC2
:103980001EF0286EF9EF1CF022C01AF023C01BF0C5
:103990002550940F1C6EF1EC1EF0286EF9EF1CF010
:1039A00022C01AF023C01BF02550D40F1C6EF1EC7E
:1039B0001EF0286EF9EF1CF02450266E276A27505F
:1039C000000AD8B4E6EF1CF0F9EF1CF02650010A0B
:1039D000D8B4ACEF1CF0030AD8B4B8EF1CF0010A5D
:1039E000D8B4C4EF1CF0070AD8B4D0EF1CF0F9EF3C
:1039F0001CF028501200010E0001F96F20EEF3F0C8
:103A0000050EDE6AE806FDE2000EFA6F63506410F0
:103A1000D8A40DEF1DF00FEF1DF013EF1DF0000EF9
:103A2000F96F56EF1DF063C00DF064C00EF0000E8C
:103A3000106E200E0F6E000E126E050E116E3DEC14
:103A400017F020EE05F06350D9266450DA22DF6AC1
:103A5000F30E4B6E000E4C6E5A0E4D6E100E4E6EE7
:103A600061C04FF062C050F034EC21F047EF1DF020
:103A7000F30EFA25D96EDA6A000EDA22FA516324BF
:103A8000E16E000E6420E26EDFCFE7FFFA2BF30E4B
:103A90000001FA25D96EDA6A000EDA22DF50D8A4C6
:103AA00054EF1DF056EF1DF038EF1DF0F9511200E4
:103AB000000E126E0EBE61EF1DF05FEF1DF067EF9E
:103AC0001DF00D6C0E1ED8B00E2A010E126E10BE27
:103AD0006EEF1DF06CEF1DF072EF1DF00F6C101EFD
:103AE000D8B0102A0F501010D8B479EF1DF07BEF2A
:103AF0001DF09FEF1DF0010E116E83EF1DF0D890A9
:103B00000F361036112A10AE88EF1DF08AEF1DF027
:103B10007FEF1DF00F500D5C10500E58D8A093EFA2
:103B20001DF095EF1DF099EF1DF00F500D5E105038
:103B30000E5AD89010320F32112E8AEF1DF012500B
:103B4000D8B4A5EF1DF0A7EF1DF0ABEF1DF00D6C85
:103B50000E1ED8B00E2A0DC00DF00EC00EF01200D1
:103B6000010E086E01500210D8B4B9EF1DF0BBEF82
:103B70001DF0C4EF1DF003500410D8A4C2EF1DF0D7
:103B8000C4EF1DF0C8EF1DF0000E086E06EF1EF02A
:103B900020EE06F00150D9260250DA22DFA2D3EF40
:103BA0001DF0D5EF1DF0DFEF1DF003C0D9FF04C0FD
:103BB000DAFFC3CFDEFFC4CFDDFF06EF1EF020EE3D
:103BC00006F00150D9260250DA22DFB2EAEF1DF0EA
:103BD000ECEF1DF0D5EF1DF0C350C4CF05F0066A21
:103BE00005C006F0056A0526000E0622060E076EC1
:103BF000063406320532072EF8EF1DF003C0D9FF58
:103C000004C0DAFF05C0DEFF06C0DDFF0850120069
:103C1000010E106E0D500E10D8A411EF1EF013EF10
:103C20001EF017EF1EF0000E106E56EF1EF0CA9435
:103C300020EE04F00D50D9260E50DA22DF50030B8F
:103C40000F6ECA500F18FC0B0F18CA6E20EE04F04E
:103C50000D50D9260E50DA22DF30E8320F0B0F6EEE
:103C60000F460F460F46CA500F18870B0F18CA6E23
:103C700020EE03F00D50D9260E50DA22DF50CC6E24
:103C800020EE03F00D50D9260E50DA22DF5000014D
:103C9000B16F9D829E92F28EF28C0DC0D9FF0EC044
:103CA000DAFFDECF9EF0DDCF9FF0CA841050120005
:103CB000010E266E22502310D8B461EF1EF063EF80
:103CC0001EF06CEF1EF024502510D8A46AEF1EF0F1
:103CD0006CEF1EF08BEF1EF0000E266EA4EF1EF0B0
:103CE00022C01AF023C01BF024C0F6FF25C0F7FF46
:103CF000000EF86E0F0EF76403D00800F55005D0E3
:103D0000F6CFE9FFF7CFEAFFEF501C6EA6EC1EF0EE
:103D1000266E244A252A24C0F6FF25C0F7FF000E90
:103D2000F86E0F0EF76403D00800F55005D0F6CFFB
:103D3000E9FFF7CFEAFFEF500009D8A4A2EF1EF089
:103D4000A4EF1EF070EF1EF0265012001A501B1048
:103D5000D8A4ADEF1EF0AFEF1EF0B3EF1EF0000ED3
:103D60001F6EEFEF1EF0090E1A240D6E000E1B20C1
:103D70000E6E010E0F6EC9EC19F0000E216E000ED2
:103D8000206E20501A240D6E21501B200E6E20C074
:103D90001DF01CC01EF01D2AD0EF1EF0D8901E3260
:103DA0001D2ECEEF1EF01E50010B0F6EC9EC19F048
:103DB000204A212A21BEE6EF1EF0215009E1080E1B
:103DC000205CD8A0E6EF1EF0E8EF1EF0C1EF1EF079
:103DD0001AC017F01BC018F00DEC21F01F6E1F5019
:103DE00012001A501B10D8A4F8EF1EF0FAEF1EF0C4
:103DF000FEEF1EF0000E1F6E3AEF1FF0090E1A24A0
:103E00000D6E000E1B200E6E000E0F6EC9EC19F029
:103E1000000E216E000E206E20501A240D6E2150CF
:103E20001B200E6E20C01DF01CC01EF01D2A1BEFB3
:103E30001FF0D8901E321D2E19EF1FF01E50010BDF
:103E40000F6EC9EC19F0204A212A21BE31EF1FF074
:103E5000215009E1080E205CD8A031EF1FF033EFAC
:103E60001FF00CEF1FF01AC017F01BC018F00DEC7C
:103E700021F01F6E1F50120022BE41EF1FF043EFD2
:103E80001FF049EF1FF021C026F022C027F04DEFB0
:103E90001FF0000E276E000E266E000E256E000E1F
:103EA000246E5FEF1FF0000E0E6E200E0D6E1DC013
:103EB0000FF01EC010F0D3EC1BF0244A252A265028
:103EC000245C2550800A236E2750800A2358D8A0EE
:103ED0006CEF1FF06EEF1FF053EF1FF01FC016F0D6
:103EE00020C017F01DC018F01EC019F07DEC21F0A5
:103EF0001200000E126E000E116E0F501010D8B48A
:103F000084EF1FF086EF1FF0AEEF1FF0010E136E6F
:103F10008EEF1FF0D8900F361036132A10AE93EFA5
:103F20001FF095EF1FF08AEF1FF0D8901136123670
:103F30000F500D5C10500E58D8A0A1EF1FF0A3EF4A
:103F40001FF0A8EF1FF00F500D5E10500E5A118099
:103F5000D89010320F32132E95EF1FF011C00DF0D4
:103F600012C00EF012009A0EF66E450EF76E000E9D
:103F7000F86E01EE3CF010EE11F00900F5CFEEFF07
:103F8000E550E150FAE1380EF66E440EF76E000E81
:103F9000F86E00EEBCF010EE37F00900F5CFEEFF42
:103FA000E550E150FAE101EE00F03C0EEE6AE80661
:103FB000FDE100EE80F03C0EEE6AE806FDE100EE69
:103FC00067F00C0EEE6AE806FDE173907392000153
:103FD000E4EF12F0010E106E0D500E10D8A4F3EFA6
:103FE0001FF0F5EF1FF0F9EF1FF0000E106E1FEF3E
:103FF00020F020EE01F00D50D9260E50DA22DF50CD
:10400000D8A405EF20F007EF20F00DEF20F0BD5011
:10401000F00B0C09BD6E1FEF20F020EE01F00D50EB
:10402000D9260E50DA22DE04D8A419EF20F01BEFB7
:1040300020F01FEF20F0BA50F00B0C09BA6E1050B0
:10404000120017501810D8B428EF20F02AEF20F0F3
:104050003BEF20F017C0D9FF18C0DAFFDF30E8329D
:10406000E832070B196E070E196439EF20F03BEFA9
:1040700020F03FEF20F0000E1A6E55EF20F017C031
:104080000DF018C00EF0F8EC17F01A6E17C00DF016
:1040900018C00EF017C0D9FF18C0DAFF000EDFBE3F
:1040A000010E0F6EC9EC19F01A6E1A501200010EB3
:1040B000106E0D500E10D8A460EF20F062EF20F0CB
:1040C00066EF20F0000E106E88EF20F020EE01F079
:1040D0000D50D9260E50DA22DF50D8A472EF20F00E
:1040E00074EF20F078EF20F0F00EBD1688EF20F08E
:1040F00020EE01F00D50D9260E50DA22DE04D8A4AD
:1041000084EF20F086EF20F088EF20F0F00EBA1652
:104110001050120098EF20F0B196B18CB7EF20F05C
:10412000B186B19CB7EF20F0B196B19CB7EF20F00B
:1041300020EE04F00D50D9260E50DA22DF500F6E1B
:10414000106A1050000AD8B4A8EF20F0B7EF20F0A2
:104150000F50000AD8B48CEF20F0010AD8B490EFC9
:1041600020F0030AD8B494EF20F0B7EF20F012004B
:1041700029502A10D8B4BFEF20F0C1EF20F0CAEFC9
:1041800020F02D502E10D8A4C8EF20F0CAEF20F058
:10419000CEEF20F0000E2F6EE3EF20F029C022F0CA
:1041A0002AC023F02BC024F02CC025F09AEC1CF080
:1041B00029C022F02AC023F02DC024F02EC025F003
:1041C00058EC1EF02F6E2F50120045C049F046C02B
:1041D0004AF0F9EF20F043C035F044C036F0490E04
:1041E000376E000E386E47C039F048C03AF033ECF5
:1041F00019F049C0F6FF4AC0F7FFF86A0800F55009
:104200000009D8A406EF21F008EF21F0EBEF20F031
:10421000000E446E000E436E120017501810D8A402
:1042200014EF21F016EF21F01AEF21F0000E196EB5
:1042300032EF21F0080E17240D6E000E18200E6EBE
:10424000010E0F6EC9EC19F000D000D000F0080E7E
:1042500017240D6E000E18200E6E000E0F6EC9ECA6
:1042600019F0196E195012004F0E536E000E546E55
:104270004BC055F04CC056F0000E596E000E586EF3
:10428000000E606E000E5F6E550E436E000E446EA3
:104290004DC045F04EC046F0530E476E000E486EBE
:1042A000E5EC20F058504B24D96E59504C20DA6E72
:1042B000DF6A120017501810D8A461EF21F063EFE5
:1042C00021F067EF21F0000E196E7BEF21F017C08F
:1042D0000DF018C00EF0010E0F6EC9EC19F0196E3A
:1042E000010E17240D6E000E18200E6E000E0F6EBC
:1042F000C9EC19F0196E19501200000E1C6E000E58
:104300001B6E8EEF21F01AC00DF00E6A18C00FF070
:1043100019C010F0D3EC1BF01B4A1C2A1B501624AA
:10432000D96E1C501720DA6EDF501A6E1A50D8A4BE
:104330009CEF21F09EEF21F083EF21F01200000EA0
:10434000186E15501610D8A4A8EF21F0AAEF21F08E
:10435000AEEF21F0000E196EBEEF21F015C010F087
:1043600016C011F017C012F0FFEC21F0196E15C045
:104370000DF016C00EF06BEC22F0196E1950120001
:1043800014BECDEF21F0145006E11304D8B0CBEFEA
:1043900021F0CDEF21F0DBEF21F013C015F014C0B8
:1043A00016F0151E161E154A162A15C013F016C053
:1043B00014F0DFEF21F013C013F014C014F012005A
:1043C0001B501C10D8A4E7EF21F0E9EF21F0EDEF2E
:1043D00021F0000E1D6EFDEF21F01BC017F01CC078
:1043E00018F021EC20F01D6E010E1B24176E000E3C
:1043F0001C20186E21EC20F01D6E1D501200010EC5
:10440000146E10501110D8A408EF22F00AEF22F019
:104410000EEF22F0000E146E1AEF22F012C013F00D
:1044200013461346C2501318C30B1318C26E125012
:1044300065EC1BF014501200890F8A0F8B0F8C0F44
:104440008D0F920F930F940F950F960F02000C1281
:10445000000000000000008813000005030B131B80
:0F446000232B333B0A02FA4400000505031A22FE
:10447000EA0E106E000E116E5FEC1AF00001FF6F75
:10448000D00EF36F000EF46F2FEC08F00001FF6FF9
:10449000B50E0D6E000E0E6E08EC1EF00001FF6FE3
:1044A0008CEC22F012009E9C0001AE51AF11D8B4EA
:1044B0005CEF22F05EEF22F06AEF22F002D86AEFA2
:1044C00022F00500FA6EAE51FD6EAF51FE6EFF6A2E
:1044D000FA5012001200010E0F6E0D500E10D8A4EB
:1044E00074EF22F076EF22F07AEF22F0000E0F6EDA
:1044F0007BEF22F0C2820F501200EA0E016E000E16
:10450000026EBA0E036E000E046EB0EC1DF00001D8
:10451000FF6F000E6D6E1200F10E1B6E000E1C6E12
:10452000E0EC21F0E00E226E000E236E9AEC18F003
:104530001200016EF2900150D8A4A1EF22F0A3EF77
:1045400022F0A5EF22F0A5EF22F01200016EF2900A
:104550000150D8A4AEEF22F0B0EF22F0B2EF22F07B
:10456000B2EF22F01200016EF2900150D8A4BBEF1E
:1045700022F0BDEF22F0BFEF22F0BFEF22F01200D9
:10458000016EF2900150D8A4C8EF22F0CAEF22F0D9
:10459000CCEF22F0CCEF22F01200800F810F820FBF
:0B45A000830F840F020A121A626A7275
:1045AC00A19200019B51B36E9AC0B2FF12009E9073
:1045BC000001A151CF6EA0C0CEFF1200F2940001F9
:1045CC00A551D76EA4C0D6FF12009E92B1C0CCFFED
:1045DC001200F0921200F0901200F2921200A190D0
:0845EC0012009E94120012005F
:020000040030CA
:0E000000FF071F1FFF8185FF0FC00FE00F409D
:00000001FF
